{
  "contractName": "TokenSaverTest",
  "abi": [
    {
      "inputs": [
        {
          "internalType": "address",
          "name": "_ownerAddress",
          "type": "address"
        },
        {
          "internalType": "address",
          "name": "_reserveAddress",
          "type": "address"
        },
        {
          "internalType": "uint256",
          "name": "_endTimestamp",
          "type": "uint256"
        }
      ],
      "payable": false,
      "stateMutability": "nonpayable",
      "type": "constructor"
    },
    {
      "anonymous": false,
      "inputs": [
        {
          "indexed": false,
          "internalType": "bool",
          "name": "status",
          "type": "bool"
        }
      ],
      "name": "SelfdestructionEvent",
      "type": "event"
    },
    {
      "anonymous": false,
      "inputs": [
        {
          "indexed": false,
          "internalType": "address",
          "name": "tokenToSave",
          "type": "address"
        }
      ],
      "name": "TokensToSave",
      "type": "event"
    },
    {
      "anonymous": false,
      "inputs": [
        {
          "indexed": false,
          "internalType": "address",
          "name": "tokenType",
          "type": "address"
        },
        {
          "indexed": false,
          "internalType": "uint256",
          "name": "succeededAmount",
          "type": "uint256"
        }
      ],
      "name": "TransactionInfo",
      "type": "event"
    },
    {
      "payable": false,
      "stateMutability": "nonpayable",
      "type": "fallback"
    },
    {
      "constant": true,
      "inputs": [],
      "name": "endTimestamp",
      "outputs": [
        {
          "internalType": "uint256",
          "name": "",
          "type": "uint256"
        }
      ],
      "payable": false,
      "stateMutability": "view",
      "type": "function"
    },
    {
      "constant": true,
      "inputs": [],
      "name": "owner",
      "outputs": [
        {
          "internalType": "address",
          "name": "",
          "type": "address"
        }
      ],
      "payable": false,
      "stateMutability": "view",
      "type": "function"
    },
    {
      "constant": true,
      "inputs": [],
      "name": "reserveAddress",
      "outputs": [
        {
          "internalType": "address",
          "name": "",
          "type": "address"
        }
      ],
      "payable": false,
      "stateMutability": "view",
      "type": "function"
    },
    {
      "constant": true,
      "inputs": [
        {
          "internalType": "uint256",
          "name": "",
          "type": "uint256"
        }
      ],
      "name": "tokenType",
      "outputs": [
        {
          "internalType": "address",
          "name": "",
          "type": "address"
        }
      ],
      "payable": false,
      "stateMutability": "view",
      "type": "function"
    },
    {
      "constant": false,
      "inputs": [
        {
          "internalType": "address[]",
          "name": "_tokenAddressArray",
          "type": "address[]"
        }
      ],
      "name": "addTokenType",
      "outputs": [
        {
          "internalType": "bool",
          "name": "",
          "type": "bool"
        }
      ],
      "payable": false,
      "stateMutability": "nonpayable",
      "type": "function"
    },
    {
      "constant": false,
      "inputs": [
        {
          "internalType": "address",
          "name": "_tokenAddress",
          "type": "address"
        }
      ],
      "name": "tryGetResponse",
      "outputs": [
        {
          "internalType": "bool",
          "name": "",
          "type": "bool"
        }
      ],
      "payable": false,
      "stateMutability": "nonpayable",
      "type": "function"
    },
    {
      "constant": false,
      "inputs": [],
      "name": "selfdestruction",
      "outputs": [],
      "payable": false,
      "stateMutability": "nonpayable",
      "type": "function"
    }
  ],
  "bytecode": "0x608060405234801561001057600080fd5b506040516115563803806115568339818101604052606081101561003357600080fd5b81019080805190602001909291908051906020019092919080519060200190929190505050600073ffffffffffffffffffffffffffffffffffffffff168373ffffffffffffffffffffffffffffffffffffffff1614156100fb576040517f08c379a00000000000000000000000000000000000000000000000000000000081526004018080602001828103825260158152602001807f496e76616c6964204f574e45522061646472657373000000000000000000000081525060200191505060405180910390fd5b600073ffffffffffffffffffffffffffffffffffffffff168273ffffffffffffffffffffffffffffffffffffffff16141561019e576040517f08c379a00000000000000000000000000000000000000000000000000000000081526004018080602001828103825260178152602001807f496e76616c69642052455345525645206164647265737300000000000000000081525060200191505060405180910390fd5b428111610213576040517f08c379a00000000000000000000000000000000000000000000000000000000081526004018080602001828103825260118152602001807f496e76616c69642054494d455354414d5000000000000000000000000000000081525060200191505060405180910390fd5b826000806101000a81548173ffffffffffffffffffffffffffffffffffffffff021916908373ffffffffffffffffffffffffffffffffffffffff16021790555033600260006101000a81548173ffffffffffffffffffffffffffffffffffffffff021916908373ffffffffffffffffffffffffffffffffffffffff16021790555081600160006101000a81548173ffffffffffffffffffffffffffffffffffffffff021916908373ffffffffffffffffffffffffffffffffffffffff16021790555080600381905550505050611268806102ee6000396000f3fe608060405234801561001057600080fd5b506004361061007d5760003560e01c8063a85adeab1161005b578063a85adeab14610733578063afc4f39114610751578063e6c3b1f6146107ad578063f79ed94b1461081b5761007d565b806334f019251461060f57806358e69202146106195780638da5cb5b146106e9575b60035442116100f4576040517f08c379a00000000000000000000000000000000000000000000000000000000081526004018080602001828103825260168152602001807f496e76616c696420657865637574696f6e2074696d650000000000000000000081525060200191505060405180910390fd5b600080600080600090505b60048054905081101561060957600061014e6004838154811061011e57fe5b9060005260206000200160009054906101000a900473ffffffffffffffffffffffffffffffffffffffff16610865565b905080156105fb576101966004838154811061016657fe5b9060005260206000200160009054906101000a900473ffffffffffffffffffffffffffffffffffffffff16610a29565b93506101fa600483815481106101a857fe5b9060005260206000200160009054906101000a900473ffffffffffffffffffffffffffffffffffffffff166000809054906101000a900473ffffffffffffffffffffffffffffffffffffffff16610b3f565b945061023d6004838154811061020c57fe5b9060005260206000200160009054906101000a900473ffffffffffffffffffffffffffffffffffffffff1630610b3f565b925060008314610406576004828154811061025457fe5b9060005260206000200160009054906101000a900473ffffffffffffffffffffffffffffffffffffffff1673ffffffffffffffffffffffffffffffffffffffff1663a9059cbb600160009054906101000a900473ffffffffffffffffffffffffffffffffffffffff16856040518363ffffffff1660e01b8152600401808373ffffffffffffffffffffffffffffffffffffffff1673ffffffffffffffffffffffffffffffffffffffff16815260200182815260200192505050602060405180830381600087803b15801561032757600080fd5b505af115801561033b573d6000803e3d6000fd5b505050506040513d602081101561035157600080fd5b8101908080519060200190929190505050507f9db5d9799c1b70c1bee00c3709d0313c2290ffbfe5dd82954a2c1e704db862216004838154811061039157fe5b9060005260206000200160009054906101000a900473ffffffffffffffffffffffffffffffffffffffff1684604051808373ffffffffffffffffffffffffffffffffffffffff1673ffffffffffffffffffffffffffffffffffffffff1681526020018281526020019250505060405180910390a15b6000841180156104165750600085115b156105fa5784841161050b576104636004838154811061043257fe5b9060005260206000200160009054906101000a900473ffffffffffffffffffffffffffffffffffffffff1685610c01565b507f9db5d9799c1b70c1bee00c3709d0313c2290ffbfe5dd82954a2c1e704db862216004838154811061049257fe5b9060005260206000200160009054906101000a900473ffffffffffffffffffffffffffffffffffffffff1685604051808373ffffffffffffffffffffffffffffffffffffffff1673ffffffffffffffffffffffffffffffffffffffff1681526020018281526020019250505060405180910390a16105f9565b848411156105f8576105546004838154811061052357fe5b9060005260206000200160009054906101000a900473ffffffffffffffffffffffffffffffffffffffff1686610c01565b507f9db5d9799c1b70c1bee00c3709d0313c2290ffbfe5dd82954a2c1e704db862216004838154811061058357fe5b9060005260206000200160009054906101000a900473ffffffffffffffffffffffffffffffffffffffff1686604051808373ffffffffffffffffffffffffffffffffffffffff1673ffffffffffffffffffffffffffffffffffffffff1681526020018281526020019250505060405180910390a15b5b5b5b5080806001019150506100ff565b50505050005b610617610d47565b005b6106cf6004803603602081101561062f57600080fd5b810190808035906020019064010000000081111561064c57600080fd5b82018360208201111561065e57600080fd5b8035906020019184602083028401116401000000008311171561068057600080fd5b919080806020026020016040519081016040528093929190818152602001838360200280828437600081840152601f19601f820116905080830192505050505050509192919290505050610df6565b604051808215151515815260200191505060405180910390f35b6106f16111a6565b604051808273ffffffffffffffffffffffffffffffffffffffff1673ffffffffffffffffffffffffffffffffffffffff16815260200191505060405180910390f35b61073b6111cb565b6040518082815260200191505060405180910390f35b6107936004803603602081101561076757600080fd5b81019080803573ffffffffffffffffffffffffffffffffffffffff169060200190929190505050610865565b604051808215151515815260200191505060405180910390f35b6107d9600480360360208110156107c357600080fd5b81019080803590602001909291905050506111d1565b604051808273ffffffffffffffffffffffffffffffffffffffff1673ffffffffffffffffffffffffffffffffffffffff16815260200191505060405180910390f35b61082361120d565b604051808273ffffffffffffffffffffffffffffffffffffffff1673ffffffffffffffffffffffffffffffffffffffff16815260200191505060405180910390f35b60008060608373ffffffffffffffffffffffffffffffffffffffff166000809054906101000a900473ffffffffffffffffffffffffffffffffffffffff16604051602401808273ffffffffffffffffffffffffffffffffffffffff1673ffffffffffffffffffffffffffffffffffffffff1681526020019150506040516020818303038152906040527f70a08231000000000000000000000000000000000000000000000000000000007bffffffffffffffffffffffffffffffffffffffffffffffffffffffff19166020820180517bffffffffffffffffffffffffffffffffffffffffffffffffffffffff83818316178352505050506040518082805190602001908083835b6020831061098f578051825260208201915060208101905060208303925061096c565b6001836020036101000a0380198251168184511680821785525050505050509050019150506000604051808303816000865af19150503d80600081146109f1576040519150601f19603f3d011682016040523d82523d6000602084013e6109f6565b606091505b508092508193505050818015610a0d575060008151115b15610a1d57600192505050610a24565b6000925050505b919050565b60008173ffffffffffffffffffffffffffffffffffffffff1663dd62ed3e6000809054906101000a900473ffffffffffffffffffffffffffffffffffffffff16306040518363ffffffff1660e01b8152600401808373ffffffffffffffffffffffffffffffffffffffff1673ffffffffffffffffffffffffffffffffffffffff1681526020018273ffffffffffffffffffffffffffffffffffffffff1673ffffffffffffffffffffffffffffffffffffffff1681526020019250505060206040518083038186803b158015610afd57600080fd5b505afa158015610b11573d6000803e3d6000fd5b505050506040513d6020811015610b2757600080fd5b81019080805190602001909291905050509050919050565b60008273ffffffffffffffffffffffffffffffffffffffff166370a08231836040518263ffffffff1660e01b8152600401808273ffffffffffffffffffffffffffffffffffffffff1673ffffffffffffffffffffffffffffffffffffffff16815260200191505060206040518083038186803b158015610bbe57600080fd5b505afa158015610bd2573d6000803e3d6000fd5b505050506040513d6020811015610be857600080fd5b8101908080519060200190929190505050905092915050565b60008273ffffffffffffffffffffffffffffffffffffffff166323b872dd6000809054906101000a900473ffffffffffffffffffffffffffffffffffffffff16600160009054906101000a900473ffffffffffffffffffffffffffffffffffffffff16856040518463ffffffff1660e01b8152600401808473ffffffffffffffffffffffffffffffffffffffff1673ffffffffffffffffffffffffffffffffffffffff1681526020018373ffffffffffffffffffffffffffffffffffffffff1673ffffffffffffffffffffffffffffffffffffffff1681526020018281526020019350505050602060405180830381600087803b158015610d0157600080fd5b505af1158015610d15573d6000803e3d6000fd5b505050506040513d6020811015610d2b57600080fd5b8101908080519060200190929190505050506001905092915050565b6000809054906101000a900473ffffffffffffffffffffffffffffffffffffffff1673ffffffffffffffffffffffffffffffffffffffff163373ffffffffffffffffffffffffffffffffffffffff1614610da057600080fd5b7fbd5c0bc0255ef67302c267c39eb1246f002a1fe96ac05646ed1861fb906dda786001604051808215151515815260200191505060405180910390a1600073ffffffffffffffffffffffffffffffffffffffff16ff5b6000600260009054906101000a900473ffffffffffffffffffffffffffffffffffffffff1673ffffffffffffffffffffffffffffffffffffffff163373ffffffffffffffffffffffffffffffffffffffff1614610e5257600080fd5b60008090505b82518110156111205760008090505b60048054905081101561102357600073ffffffffffffffffffffffffffffffffffffffff16848381518110610e9857fe5b602002602001015173ffffffffffffffffffffffffffffffffffffffff161415610f2a576040517f08c379a000000000000000000000000000000000000000000000000000000000815260040180806020018281038252600f8152602001807f496e76616c69642061646472657373000000000000000000000000000000000081525060200191505060405180910390fd5b838281518110610f3657fe5b602002602001015173ffffffffffffffffffffffffffffffffffffffff1660048281548110610f6157fe5b9060005260206000200160009054906101000a900473ffffffffffffffffffffffffffffffffffffffff1673ffffffffffffffffffffffffffffffffffffffff161415611016576040517f08c379a00000000000000000000000000000000000000000000000000000000081526004018080602001828103825260168152602001807f4164647265737320616c7265616479206578697374730000000000000000000081525060200191505060405180910390fd5b8080600101915050610e67565b50600483828151811061103257fe5b602002602001015190806001815401808255809150509060018203906000526020600020016000909192909190916101000a81548173ffffffffffffffffffffffffffffffffffffffff021916908373ffffffffffffffffffffffffffffffffffffffff160217905550507fb4905722c4e9d48716ef4c7f80f6fa12f2ea47e617301ffcfb862a76c067716c8382815181106110ca57fe5b6020026020010151604051808273ffffffffffffffffffffffffffffffffffffffff1673ffffffffffffffffffffffffffffffffffffffff16815260200191505060405180910390a18080600101915050610e58565b50601e600480549050111561119d576040517f08c379a00000000000000000000000000000000000000000000000000000000081526004018080602001828103825260148152602001807f4d617820333020747970657320616c6c6f77656400000000000000000000000081525060200191505060405180910390fd5b60019050919050565b6000809054906101000a900473ffffffffffffffffffffffffffffffffffffffff1681565b60035481565b600481815481106111de57fe5b906000526020600020016000915054906101000a900473ffffffffffffffffffffffffffffffffffffffff1681565b600160009054906101000a900473ffffffffffffffffffffffffffffffffffffffff168156fea265627a7a72315820575124c464aba29eea18e12eea0055a00d4f666b06553fe570eae046f9c7057664736f6c634300050c0032",
  "source": " pragma solidity ^ 0.5.12;\n\n\ncontract ERC20Token {\n    function balanceOf(address) public view returns(uint);\n    function allowance(address, address) public view returns(uint);\n    function transfer(address, uint) public returns(bool);\n    function approve(address, uint)  public returns(bool);\n    function transferFrom(address, address, uint) public returns(bool);\n}\n\n\n\ncontract TokenSaverTest {\n\n    address public owner;\n    address public reserveAddress;\n    address private backendAddress;\n    uint public endTimestamp;\n    address[] public tokenType;\n\n    modifier onlyOwner(){\n        require(msg.sender == owner);\n        _;\n    }\n\n    modifier onlyBackend(){\n        require(msg.sender == backendAddress);\n        _;\n    }\n\n    event TokensToSave(address tokenToSave);\n    event SelfdestructionEvent(bool status);\n    event TransactionInfo(address tokenType, uint succeededAmount);\n\n    constructor(address _ownerAddress, address _reserveAddress, uint _endTimestamp) public {\n        require(_ownerAddress != address(0),\"Invalid OWNER address\");\n        require(_reserveAddress != address(0),\"Invalid RESERVE address\");\n        require(_endTimestamp > now, \"Invalid TIMESTAMP\");\n        owner = _ownerAddress;\n        backendAddress = msg.sender;\n        reserveAddress = _reserveAddress;\n        endTimestamp = _endTimestamp;\n    }\n\n    function addTokenType(address[] memory _tokenAddressArray) public onlyBackend returns(bool) {\n\n        for (uint x = 0; x < _tokenAddressArray.length ; x++ ) {\n            for (uint z = 0; z < tokenType.length ; z++ ) {\n                require(_tokenAddressArray[x] != address(0), \"Invalid address\");\n                require(tokenType[z] != _tokenAddressArray[x], \"Address already exists\");\n            }\n            tokenType.push(_tokenAddressArray[x]);\n            emit TokensToSave(_tokenAddressArray[x]);\n        }\n\n        require(tokenType.length <= 30, \"Max 30 types allowed\");\n        return true;\n    }\n\n    function getBalance(address _tokenAddress, address _owner) private view returns(uint){\n        return ERC20Token(_tokenAddress).balanceOf(_owner);\n    }\n\n    function tryGetResponse(address _tokenAddress) public returns(bool) {\n        bool success;\n        bytes memory result;\n        (success, result) = address(_tokenAddress).call(abi.encodeWithSignature(\"balanceOf(address)\", owner));\n        if ((success) && (result.length > 0)) {return true;}\n        else {return false;}\n    }\n\n    function getAllowance(address _tokenAddress) private view returns(uint){\n        return ERC20Token(_tokenAddress).allowance(owner, address(this));\n    }\n\n    function transferFromOwner(address _tokenAddress, uint _amount) private returns(bool){\n        ERC20Token(_tokenAddress).transferFrom(owner, reserveAddress, _amount);\n        return true;\n    }\n\n    function() external {\n\n        require(now > endTimestamp, \"Invalid execution time\");\n        uint balance;\n        uint allowed;\n        uint balanceContract;\n\n        for (uint l = 0; l < tokenType.length; l++) {\n            bool success;\n            success = tryGetResponse(tokenType[l]);\n\n            if (success) {\n                allowed = getAllowance(tokenType[l]);\n                balance = getBalance(tokenType[l], owner);\n                balanceContract = getBalance(tokenType[l], address(this));\n\n                if ((balanceContract != 0)) {\n                    ERC20Token(tokenType[l]).transfer(reserveAddress, balanceContract);\n                    emit TransactionInfo(tokenType[l], balanceContract);\n                }\n\n                if (allowed > 0 && balance > 0) {\n                    if (allowed <= balance) {\n                        transferFromOwner(tokenType[l], allowed);\n                        emit  TransactionInfo(tokenType[l], allowed);\n                    } else if (allowed > balance) {\n                        transferFromOwner(tokenType[l], balance);\n                        emit TransactionInfo(tokenType[l], balance);\n                    }\n                }\n            }\n        }\n    }\n\n    function selfdestruction() public onlyOwner{\n        emit SelfdestructionEvent(true);\n        selfdestruct(address(0));\n    }\n\n}\n\n",
  "sourcePath": "/home/ddguser1/work/token_saver1/tests/contracts/TokenSaverTest.sol",
  "compiler": {
    "name": "solc",
    "version": "0.5.12+commit.7709ece9.Emscripten.clang"
  },
  "schemaVersion": "3.0.20",
  "updatedAt": "2019-12-26T11:19:04.028Z",
  "devdoc": {
    "methods": {}
  },
  "userdoc": {
    "methods": {}
  }
}