{
  "contractName": "TokenSaver",
  "abi": [
    {
      "inputs": [],
      "payable": false,
      "stateMutability": "nonpayable",
      "type": "constructor"
    },
    {
      "anonymous": false,
      "inputs": [
        {
          "indexed": false,
          "internalType": "bool",
          "name": "status",
          "type": "bool"
        }
      ],
      "name": "SelfdestructionEvent",
      "type": "event"
    },
    {
      "anonymous": false,
      "inputs": [
        {
          "indexed": false,
          "internalType": "address",
          "name": "tokenToSave",
          "type": "address"
        }
      ],
      "name": "TokensToSave",
      "type": "event"
    },
    {
      "anonymous": false,
      "inputs": [
        {
          "indexed": false,
          "internalType": "address",
          "name": "tokenType",
          "type": "address"
        },
        {
          "indexed": false,
          "internalType": "uint256",
          "name": "succeededAmount",
          "type": "uint256"
        }
      ],
      "name": "TransactionInfo",
      "type": "event"
    },
    {
      "payable": false,
      "stateMutability": "nonpayable",
      "type": "fallback"
    },
    {
      "constant": true,
      "inputs": [],
      "name": "endTimestamp",
      "outputs": [
        {
          "internalType": "uint256",
          "name": "",
          "type": "uint256"
        }
      ],
      "payable": false,
      "stateMutability": "view",
      "type": "function"
    },
    {
      "constant": true,
      "inputs": [],
      "name": "owner",
      "outputs": [
        {
          "internalType": "address",
          "name": "",
          "type": "address"
        }
      ],
      "payable": false,
      "stateMutability": "view",
      "type": "function"
    },
    {
      "constant": true,
      "inputs": [],
      "name": "reserveAddress",
      "outputs": [
        {
          "internalType": "address",
          "name": "",
          "type": "address"
        }
      ],
      "payable": false,
      "stateMutability": "view",
      "type": "function"
    },
    {
      "constant": true,
      "inputs": [
        {
          "internalType": "uint256",
          "name": "",
          "type": "uint256"
        }
      ],
      "name": "tokenType",
      "outputs": [
        {
          "internalType": "address",
          "name": "",
          "type": "address"
        }
      ],
      "payable": false,
      "stateMutability": "view",
      "type": "function"
    },
    {
      "constant": false,
      "inputs": [
        {
          "internalType": "address[]",
          "name": "_tokenAddressArray",
          "type": "address[]"
        }
      ],
      "name": "addTokenType",
      "outputs": [
        {
          "internalType": "bool",
          "name": "",
          "type": "bool"
        }
      ],
      "payable": false,
      "stateMutability": "nonpayable",
      "type": "function"
    },
    {
      "constant": false,
      "inputs": [
        {
          "internalType": "address",
          "name": "_tokenAddress",
          "type": "address"
        }
      ],
      "name": "tryGetResponse",
      "outputs": [
        {
          "internalType": "bool",
          "name": "",
          "type": "bool"
        }
      ],
      "payable": false,
      "stateMutability": "nonpayable",
      "type": "function"
    },
    {
      "constant": false,
      "inputs": [],
      "name": "selfdestruction",
      "outputs": [],
      "payable": false,
      "stateMutability": "nonpayable",
      "type": "function"
    }
  ],
  "bytecode": "0x608060405234801561001057600080fd5b50600073ffffffffffffffffffffffffffffffffffffffff1673fe9b81c60ede4999ee4e1e727a2da108fcaffdd173ffffffffffffffffffffffffffffffffffffffff1614156100c8576040517f08c379a00000000000000000000000000000000000000000000000000000000081526004018080602001828103825260158152602001807f496e76616c6964204f574e45522061646472657373000000000000000000000081525060200191505060405180910390fd5b600073ffffffffffffffffffffffffffffffffffffffff1673af455db5bc786a1371679ebbf253f9706640ceb773ffffffffffffffffffffffffffffffffffffffff16141561017f576040517f08c379a00000000000000000000000000000000000000000000000000000000081526004018080602001828103825260178152602001807f496e76616c69642052455345525645206164647265737300000000000000000081525060200191505060405180910390fd5b42635e093cf4116101f8576040517f08c379a00000000000000000000000000000000000000000000000000000000081526004018080602001828103825260118152602001807f496e76616c69642054494d455354414d5000000000000000000000000000000081525060200191505060405180910390fd5b6111e6806102076000396000f3fe608060405234801561001057600080fd5b506004361061007d5760003560e01c8063a85adeab1161005b578063a85adeab1461071a578063afc4f39114610738578063e6c3b1f614610794578063f79ed94b146108025761007d565b806334f01925146105f657806358e69202146106005780638da5cb5b146106d0575b635e093cf442116100f6576040517f08c379a00000000000000000000000000000000000000000000000000000000081526004018080602001828103825260168152602001807f496e76616c696420657865637574696f6e2074696d650000000000000000000081525060200191505060405180910390fd5b600080600080600090505b6000805490508110156105f05760006101506000838154811061012057fe5b9060005260206000200160009054906101000a900473ffffffffffffffffffffffffffffffffffffffff1661084c565b905080156105e2576101986000838154811061016857fe5b9060005260206000200160009054906101000a900473ffffffffffffffffffffffffffffffffffffffff16610a03565b93506101ef600083815481106101aa57fe5b9060005260206000200160009054906101000a900473ffffffffffffffffffffffffffffffffffffffff1673fe9b81c60ede4999ee4e1e727a2da108fcaffdd1610b0c565b94506102326000838154811061020157fe5b9060005260206000200160009054906101000a900473ffffffffffffffffffffffffffffffffffffffff1630610b0c565b9250600083146103ed576000828154811061024957fe5b9060005260206000200160009054906101000a900473ffffffffffffffffffffffffffffffffffffffff1673ffffffffffffffffffffffffffffffffffffffff1663a9059cbb73af455db5bc786a1371679ebbf253f9706640ceb7856040518363ffffffff1660e01b8152600401808373ffffffffffffffffffffffffffffffffffffffff1673ffffffffffffffffffffffffffffffffffffffff16815260200182815260200192505050602060405180830381600087803b15801561030e57600080fd5b505af1158015610322573d6000803e3d6000fd5b505050506040513d602081101561033857600080fd5b8101908080519060200190929190505050507f9db5d9799c1b70c1bee00c3709d0313c2290ffbfe5dd82954a2c1e704db862216000838154811061037857fe5b9060005260206000200160009054906101000a900473ffffffffffffffffffffffffffffffffffffffff1684604051808373ffffffffffffffffffffffffffffffffffffffff1673ffffffffffffffffffffffffffffffffffffffff1681526020018281526020019250505060405180910390a15b6000841180156103fd5750600085115b156105e1578484116104f25761044a6000838154811061041957fe5b9060005260206000200160009054906101000a900473ffffffffffffffffffffffffffffffffffffffff1685610bce565b507f9db5d9799c1b70c1bee00c3709d0313c2290ffbfe5dd82954a2c1e704db862216000838154811061047957fe5b9060005260206000200160009054906101000a900473ffffffffffffffffffffffffffffffffffffffff1685604051808373ffffffffffffffffffffffffffffffffffffffff1673ffffffffffffffffffffffffffffffffffffffff1681526020018281526020019250505060405180910390a16105e0565b848411156105df5761053b6000838154811061050a57fe5b9060005260206000200160009054906101000a900473ffffffffffffffffffffffffffffffffffffffff1686610bce565b507f9db5d9799c1b70c1bee00c3709d0313c2290ffbfe5dd82954a2c1e704db862216000838154811061056a57fe5b9060005260206000200160009054906101000a900473ffffffffffffffffffffffffffffffffffffffff1686604051808373ffffffffffffffffffffffffffffffffffffffff1673ffffffffffffffffffffffffffffffffffffffff1681526020018281526020019250505060405180910390a15b5b5b5b508080600101915050610101565b50505050005b6105fe610cf9565b005b6106b66004803603602081101561061657600080fd5b810190808035906020019064010000000081111561063357600080fd5b82018360208201111561064557600080fd5b8035906020019184602083028401116401000000008311171561066757600080fd5b919080806020026020016040519081016040528093929190818152602001838360200280828437600081840152601f19601f820116905080830192505050505050509192919290505050610d9b565b604051808215151515815260200191505060405180910390f35b6106d861113d565b604051808273ffffffffffffffffffffffffffffffffffffffff1673ffffffffffffffffffffffffffffffffffffffff16815260200191505060405180910390f35b610722611155565b6040518082815260200191505060405180910390f35b61077a6004803603602081101561074e57600080fd5b81019080803573ffffffffffffffffffffffffffffffffffffffff16906020019092919050505061084c565b604051808215151515815260200191505060405180910390f35b6107c0600480360360208110156107aa57600080fd5b810190808035906020019092919050505061115d565b604051808273ffffffffffffffffffffffffffffffffffffffff1673ffffffffffffffffffffffffffffffffffffffff16815260200191505060405180910390f35b61080a611199565b604051808273ffffffffffffffffffffffffffffffffffffffff1673ffffffffffffffffffffffffffffffffffffffff16815260200191505060405180910390f35b60008060608373ffffffffffffffffffffffffffffffffffffffff1673fe9b81c60ede4999ee4e1e727a2da108fcaffdd1604051602401808273ffffffffffffffffffffffffffffffffffffffff1673ffffffffffffffffffffffffffffffffffffffff1681526020019150506040516020818303038152906040527f70a08231000000000000000000000000000000000000000000000000000000007bffffffffffffffffffffffffffffffffffffffffffffffffffffffff19166020820180517bffffffffffffffffffffffffffffffffffffffffffffffffffffffff83818316178352505050506040518082805190602001908083835b602083106109695780518252602082019150602081019050602083039250610946565b6001836020036101000a0380198251168184511680821785525050505050509050019150506000604051808303816000865af19150503d80600081146109cb576040519150601f19603f3d011682016040523d82523d6000602084013e6109d0565b606091505b5080925081935050508180156109e7575060008151115b156109f7576001925050506109fe565b6000925050505b919050565b60008173ffffffffffffffffffffffffffffffffffffffff1663dd62ed3e73fe9b81c60ede4999ee4e1e727a2da108fcaffdd1306040518363ffffffff1660e01b8152600401808373ffffffffffffffffffffffffffffffffffffffff1673ffffffffffffffffffffffffffffffffffffffff1681526020018273ffffffffffffffffffffffffffffffffffffffff1673ffffffffffffffffffffffffffffffffffffffff1681526020019250505060206040518083038186803b158015610aca57600080fd5b505afa158015610ade573d6000803e3d6000fd5b505050506040513d6020811015610af457600080fd5b81019080805190602001909291905050509050919050565b60008273ffffffffffffffffffffffffffffffffffffffff166370a08231836040518263ffffffff1660e01b8152600401808273ffffffffffffffffffffffffffffffffffffffff1673ffffffffffffffffffffffffffffffffffffffff16815260200191505060206040518083038186803b158015610b8b57600080fd5b505afa158015610b9f573d6000803e3d6000fd5b505050506040513d6020811015610bb557600080fd5b8101908080519060200190929190505050905092915050565b60008273ffffffffffffffffffffffffffffffffffffffff166323b872dd73fe9b81c60ede4999ee4e1e727a2da108fcaffdd173af455db5bc786a1371679ebbf253f9706640ceb7856040518463ffffffff1660e01b8152600401808473ffffffffffffffffffffffffffffffffffffffff1673ffffffffffffffffffffffffffffffffffffffff1681526020018373ffffffffffffffffffffffffffffffffffffffff1673ffffffffffffffffffffffffffffffffffffffff1681526020018281526020019350505050602060405180830381600087803b158015610cb357600080fd5b505af1158015610cc7573d6000803e3d6000fd5b505050506040513d6020811015610cdd57600080fd5b8101908080519060200190929190505050506001905092915050565b73fe9b81c60ede4999ee4e1e727a2da108fcaffdd173ffffffffffffffffffffffffffffffffffffffff163373ffffffffffffffffffffffffffffffffffffffff1614610d4557600080fd5b7fbd5c0bc0255ef67302c267c39eb1246f002a1fe96ac05646ed1861fb906dda786001604051808215151515815260200191505060405180910390a1600073ffffffffffffffffffffffffffffffffffffffff16ff5b6000737aed9ecbe13bfe56d08355477f12f5fd89072ce773ffffffffffffffffffffffffffffffffffffffff163373ffffffffffffffffffffffffffffffffffffffff1614610de957600080fd5b60008090505b82518110156110b75760008090505b600080549050811015610fba57600073ffffffffffffffffffffffffffffffffffffffff16848381518110610e2f57fe5b602002602001015173ffffffffffffffffffffffffffffffffffffffff161415610ec1576040517f08c379a000000000000000000000000000000000000000000000000000000000815260040180806020018281038252600f8152602001807f496e76616c69642061646472657373000000000000000000000000000000000081525060200191505060405180910390fd5b838281518110610ecd57fe5b602002602001015173ffffffffffffffffffffffffffffffffffffffff1660008281548110610ef857fe5b9060005260206000200160009054906101000a900473ffffffffffffffffffffffffffffffffffffffff1673ffffffffffffffffffffffffffffffffffffffff161415610fad576040517f08c379a00000000000000000000000000000000000000000000000000000000081526004018080602001828103825260168152602001807f4164647265737320616c7265616479206578697374730000000000000000000081525060200191505060405180910390fd5b8080600101915050610dfe565b506000838281518110610fc957fe5b602002602001015190806001815401808255809150509060018203906000526020600020016000909192909190916101000a81548173ffffffffffffffffffffffffffffffffffffffff021916908373ffffffffffffffffffffffffffffffffffffffff160217905550507fb4905722c4e9d48716ef4c7f80f6fa12f2ea47e617301ffcfb862a76c067716c83828151811061106157fe5b6020026020010151604051808273ffffffffffffffffffffffffffffffffffffffff1673ffffffffffffffffffffffffffffffffffffffff16815260200191505060405180910390a18080600101915050610def565b50601e6000805490501115611134576040517f08c379a00000000000000000000000000000000000000000000000000000000081526004018080602001828103825260148152602001807f4d617820333020747970657320616c6c6f77656400000000000000000000000081525060200191505060405180910390fd5b60019050919050565b73fe9b81c60ede4999ee4e1e727a2da108fcaffdd181565b635e093cf481565b6000818154811061116a57fe5b906000526020600020016000915054906101000a900473ffffffffffffffffffffffffffffffffffffffff1681565b73af455db5bc786a1371679ebbf253f9706640ceb78156fea265627a7a72315820bbd44700e317a35432a75dde6c560b66506515f4d01632be694e31dea233ff3364736f6c634300050c0032",
  "source": " pragma solidity ^ 0.5.12;\n\n\ncontract ERC20Token {\n    function balanceOf(address) public view returns(uint);\n    function allowance(address, address) public view returns(uint);\n    function transfer(address, uint) public returns(bool);\n    function approve(address, uint)  public returns(bool);\n    function transferFrom(address, address, uint) public returns(bool);\n}\n\n\n\ncontract TokenSaver {\n\n    address constant public owner = 0xfE9B81C60EdE4999ee4e1e727A2DA108FCAfFDd1;\n    address constant public reserveAddress = 0xAf455dB5bc786a1371679ebbF253f9706640ceb7;\n    address constant private backendAddress = 0x7aED9EcbE13BFE56d08355477f12f5fd89072Ce7;\n    uint constant public endTimestamp = 1577663732;\n    address[] public tokenType;\n\n    modifier onlyOwner(){\n        require(msg.sender == owner);\n        _;\n    }\n\n    modifier onlyBackend(){\n        require(msg.sender == backendAddress);\n        _;\n    }\n\n    event TokensToSave(address tokenToSave);\n    event SelfdestructionEvent(bool status);\n    event TransactionInfo(address tokenType, uint succeededAmount);\n\n    constructor() public {\n        require(owner != address(0),\"Invalid OWNER address\");\n        require(reserveAddress != address(0),\"Invalid RESERVE address\");\n        require(endTimestamp > now, \"Invalid TIMESTAMP\");\n\n    }\n\n    function addTokenType(address[] memory _tokenAddressArray) public onlyBackend returns(bool) {\n\n        for (uint x = 0; x < _tokenAddressArray.length ; x++ ) {\n            for (uint z = 0; z < tokenType.length ; z++ ) {\n                require(_tokenAddressArray[x] != address(0), \"Invalid address\");\n                require(tokenType[z] != _tokenAddressArray[x], \"Address already exists\");\n            }\n            tokenType.push(_tokenAddressArray[x]);\n            emit TokensToSave(_tokenAddressArray[x]);\n        }\n\n        require(tokenType.length <= 30, \"Max 30 types allowed\");\n        return true;\n    }\n\n    function getBalance(address _tokenAddress, address _owner) private view returns(uint){\n        return ERC20Token(_tokenAddress).balanceOf(_owner);\n    }\n\n    function tryGetResponse(address _tokenAddress) public returns(bool) {\n        bool success;\n        bytes memory result;\n        (success, result) = address(_tokenAddress).call(abi.encodeWithSignature(\"balanceOf(address)\", owner));\n        if ((success) && (result.length > 0)) {return true;}\n        else {return false;}\n    }\n\n    function getAllowance(address _tokenAddress) private view returns(uint){\n        return ERC20Token(_tokenAddress).allowance(owner, address(this));\n    }\n\n    function transferFromOwner(address _tokenAddress, uint _amount) private returns(bool){\n        ERC20Token(_tokenAddress).transferFrom(owner, reserveAddress, _amount);\n        return true;\n    }\n\n    function() external {\n\n        require(now > endTimestamp, \"Invalid execution time\");\n        uint balance;\n        uint allowed;\n        uint balanceContract;\n\n        for (uint l = 0; l < tokenType.length; l++) {\n            bool success;\n            success = tryGetResponse(tokenType[l]);\n\n            if (success) {\n                allowed = getAllowance(tokenType[l]);\n                balance = getBalance(tokenType[l], owner);\n                balanceContract = getBalance(tokenType[l], address(this));\n\n                if ((balanceContract != 0)) {\n                    ERC20Token(tokenType[l]).transfer(reserveAddress, balanceContract);\n                    emit TransactionInfo(tokenType[l], balanceContract);\n                }\n\n                if (allowed > 0 && balance > 0) {\n                    if (allowed <= balance) {\n                        transferFromOwner(tokenType[l], allowed);\n                        emit  TransactionInfo(tokenType[l], allowed);\n                    } else if (allowed > balance) {\n                        transferFromOwner(tokenType[l], balance);\n                        emit TransactionInfo(tokenType[l], balance);\n                    }\n                }\n            }\n        }\n    }\n\n    function selfdestruction() public onlyOwner{\n        emit SelfdestructionEvent(true);\n        selfdestruct(address(0));\n    }\n\n}\n\n",
  "sourcePath": "/home/ddguser1/work/token_saver1/tests/contracts/TokenSaver.sol",
  "compiler": {
    "name": "solc",
    "version": "0.5.12+commit.7709ece9.Emscripten.clang"
  },
  "schemaVersion": "3.0.20",
  "updatedAt": "2019-12-26T11:19:04.023Z",
  "devdoc": {
    "methods": {}
  },
  "userdoc": {
    "methods": {}
  }
}