{
  "contractName": "TokenSaver",
  "abi": [
    {
      "inputs": [],
      "payable": false,
      "stateMutability": "nonpayable",
      "type": "constructor"
    },
    {
      "anonymous": false,
      "inputs": [
        {
          "indexed": false,
          "internalType": "bool",
          "name": "_status",
          "type": "bool"
        }
      ],
      "name": "SelfdestructionEvent",
      "type": "event"
    },
    {
      "anonymous": false,
      "inputs": [
        {
          "indexed": false,
          "internalType": "address",
          "name": "_tokenToSave",
          "type": "address"
        }
      ],
      "name": "TokensToSave",
      "type": "event"
    },
    {
      "anonymous": false,
      "inputs": [
        {
          "indexed": false,
          "internalType": "address",
          "name": "_tokenType",
          "type": "address"
        },
        {
          "indexed": false,
          "internalType": "uint256",
          "name": "_succeededAmount",
          "type": "uint256"
        }
      ],
      "name": "TransactionInfo",
      "type": "event"
    },
    {
      "payable": false,
      "stateMutability": "nonpayable",
      "type": "fallback"
    },
    {
      "constant": true,
      "inputs": [],
      "name": "endTimestamp",
      "outputs": [
        {
          "internalType": "uint256",
          "name": "",
          "type": "uint256"
        }
      ],
      "payable": false,
      "stateMutability": "view",
      "type": "function"
    },
    {
      "constant": true,
      "inputs": [],
      "name": "owner",
      "outputs": [
        {
          "internalType": "address",
          "name": "",
          "type": "address"
        }
      ],
      "payable": false,
      "stateMutability": "view",
      "type": "function"
    },
    {
      "constant": true,
      "inputs": [],
      "name": "reserveAddress",
      "outputs": [
        {
          "internalType": "address",
          "name": "",
          "type": "address"
        }
      ],
      "payable": false,
      "stateMutability": "view",
      "type": "function"
    },
    {
      "constant": false,
      "inputs": [
        {
          "internalType": "address",
          "name": "_tokenAddress",
          "type": "address"
        }
      ],
      "name": "addTokenType",
      "outputs": [
        {
          "internalType": "bool",
          "name": "",
          "type": "bool"
        }
      ],
      "payable": false,
      "stateMutability": "nonpayable",
      "type": "function"
    },
    {
      "constant": true,
      "inputs": [
        {
          "internalType": "address",
          "name": "",
          "type": "address"
        },
        {
          "internalType": "uint256",
          "name": "",
          "type": "uint256"
        },
        {
          "internalType": "bytes",
          "name": "",
          "type": "bytes"
        }
      ],
      "name": "tokenFallback",
      "outputs": [],
      "payable": false,
      "stateMutability": "pure",
      "type": "function"
    },
    {
      "constant": false,
      "inputs": [],
      "name": "selfdestruction",
      "outputs": [],
      "payable": false,
      "stateMutability": "nonpayable",
      "type": "function"
    }
  ],
  "bytecode": "0x608060405234801561001057600080fd5b50600073ffffffffffffffffffffffffffffffffffffffff1673a026bf8bd2adbc2eaff9ee81615b1f60f6fb81fd73ffffffffffffffffffffffffffffffffffffffff16141561005f57600080fd5b600073ffffffffffffffffffffffffffffffffffffffff16731db503ed562cbf45925561fb95a7d8c23f80303773ffffffffffffffffffffffffffffffffffffffff1614156100ad57600080fd5b42635dfdb114116100bd57600080fd5b610da1806100cc6000396000f3fe608060405234801561001057600080fd5b50600436106100625760003560e01c806334f01925146105335780638a253f251461053d5780638da5cb5b14610599578063a85adeab146105e3578063c0ee0b8a14610601578063f79ed94b146106e6575b635dfdb114421161007257600080fd5b600080600080600090505b60008054905081101561052d576100ca6000828154811061009a57fe5b9060005260206000200160009054906101000a900473ffffffffffffffffffffffffffffffffffffffff16610730565b9250610121600082815481106100dc57fe5b9060005260206000200160009054906101000a900473ffffffffffffffffffffffffffffffffffffffff1673a026bf8bd2adbc2eaff9ee81615b1f60f6fb81fd610839565b93506101646000828154811061013357fe5b9060005260206000200160009054906101000a900473ffffffffffffffffffffffffffffffffffffffff1630610839565b91506000821180156101765750600083115b1561032c576000818154811061018857fe5b9060005260206000200160009054906101000a900473ffffffffffffffffffffffffffffffffffffffff1673ffffffffffffffffffffffffffffffffffffffff1663a9059cbb731db503ed562cbf45925561fb95a7d8c23f803037846040518363ffffffff1660e01b8152600401808373ffffffffffffffffffffffffffffffffffffffff1673ffffffffffffffffffffffffffffffffffffffff16815260200182815260200192505050602060405180830381600087803b15801561024d57600080fd5b505af1158015610261573d6000803e3d6000fd5b505050506040513d602081101561027757600080fd5b8101908080519060200190929190505050507f9db5d9799c1b70c1bee00c3709d0313c2290ffbfe5dd82954a2c1e704db86221600082815481106102b757fe5b9060005260206000200160009054906101000a900473ffffffffffffffffffffffffffffffffffffffff1683604051808373ffffffffffffffffffffffffffffffffffffffff1673ffffffffffffffffffffffffffffffffffffffff1681526020018281526020019250505060405180910390a15b60008311801561033c5750600084115b1561052057838311610431576103896000828154811061035857fe5b9060005260206000200160009054906101000a900473ffffffffffffffffffffffffffffffffffffffff16846108fb565b507f9db5d9799c1b70c1bee00c3709d0313c2290ffbfe5dd82954a2c1e704db86221600082815481106103b857fe5b9060005260206000200160009054906101000a900473ffffffffffffffffffffffffffffffffffffffff1684604051808373ffffffffffffffffffffffffffffffffffffffff1673ffffffffffffffffffffffffffffffffffffffff1681526020018281526020019250505060405180910390a161051f565b8383111561051e5761047a6000828154811061044957fe5b9060005260206000200160009054906101000a900473ffffffffffffffffffffffffffffffffffffffff16856108fb565b507f9db5d9799c1b70c1bee00c3709d0313c2290ffbfe5dd82954a2c1e704db86221600082815481106104a957fe5b9060005260206000200160009054906101000a900473ffffffffffffffffffffffffffffffffffffffff1685604051808373ffffffffffffffffffffffffffffffffffffffff1673ffffffffffffffffffffffffffffffffffffffff1681526020018281526020019250505060405180910390a15b5b5b808060010191505061007d565b50505050005b61053b610a26565b005b61057f6004803603602081101561055357600080fd5b81019080803573ffffffffffffffffffffffffffffffffffffffff169060200190929190505050610ac8565b604051808215151515815260200191505060405180910390f35b6105a1610cc6565b604051808273ffffffffffffffffffffffffffffffffffffffff1673ffffffffffffffffffffffffffffffffffffffff16815260200191505060405180910390f35b6105eb610cde565b6040518082815260200191505060405180910390f35b6106e46004803603606081101561061757600080fd5b81019080803573ffffffffffffffffffffffffffffffffffffffff169060200190929190803590602001909291908035906020019064010000000081111561065e57600080fd5b82018360208201111561067057600080fd5b8035906020019184600183028401116401000000008311171561069257600080fd5b91908080601f016020809104026020016040519081016040528093929190818152602001838380828437600081840152601f19601f820116905080830192505050505050509192919290505050610ce6565b005b6106ee610d54565b604051808273ffffffffffffffffffffffffffffffffffffffff1673ffffffffffffffffffffffffffffffffffffffff16815260200191505060405180910390f35b60008173ffffffffffffffffffffffffffffffffffffffff1663dd62ed3e73a026bf8bd2adbc2eaff9ee81615b1f60f6fb81fd306040518363ffffffff1660e01b8152600401808373ffffffffffffffffffffffffffffffffffffffff1673ffffffffffffffffffffffffffffffffffffffff1681526020018273ffffffffffffffffffffffffffffffffffffffff1673ffffffffffffffffffffffffffffffffffffffff1681526020019250505060206040518083038186803b1580156107f757600080fd5b505afa15801561080b573d6000803e3d6000fd5b505050506040513d602081101561082157600080fd5b81019080805190602001909291905050509050919050565b60008273ffffffffffffffffffffffffffffffffffffffff166370a08231836040518263ffffffff1660e01b8152600401808273ffffffffffffffffffffffffffffffffffffffff1673ffffffffffffffffffffffffffffffffffffffff16815260200191505060206040518083038186803b1580156108b857600080fd5b505afa1580156108cc573d6000803e3d6000fd5b505050506040513d60208110156108e257600080fd5b8101908080519060200190929190505050905092915050565b60008273ffffffffffffffffffffffffffffffffffffffff166323b872dd73a026bf8bd2adbc2eaff9ee81615b1f60f6fb81fd731db503ed562cbf45925561fb95a7d8c23f803037856040518463ffffffff1660e01b8152600401808473ffffffffffffffffffffffffffffffffffffffff1673ffffffffffffffffffffffffffffffffffffffff1681526020018373ffffffffffffffffffffffffffffffffffffffff1673ffffffffffffffffffffffffffffffffffffffff1681526020018281526020019350505050602060405180830381600087803b1580156109e057600080fd5b505af11580156109f4573d6000803e3d6000fd5b505050506040513d6020811015610a0a57600080fd5b8101908080519060200190929190505050506001905092915050565b73a026bf8bd2adbc2eaff9ee81615b1f60f6fb81fd73ffffffffffffffffffffffffffffffffffffffff163373ffffffffffffffffffffffffffffffffffffffff1614610a7257600080fd5b7fbd5c0bc0255ef67302c267c39eb1246f002a1fe96ac05646ed1861fb906dda786001604051808215151515815260200191505060405180910390a1600073ffffffffffffffffffffffffffffffffffffffff16ff5b600073a026bf8bd2adbc2eaff9ee81615b1f60f6fb81fd73ffffffffffffffffffffffffffffffffffffffff163373ffffffffffffffffffffffffffffffffffffffff1614610b1657600080fd5b600073ffffffffffffffffffffffffffffffffffffffff168273ffffffffffffffffffffffffffffffffffffffff161415610b5057600080fd5b601e6000805490501115610b6357600080fd5b60008090505b600080549050811015610bf3578273ffffffffffffffffffffffffffffffffffffffff1660008281548110610b9a57fe5b9060005260206000200160009054906101000a900473ffffffffffffffffffffffffffffffffffffffff1673ffffffffffffffffffffffffffffffffffffffff161415610be657600080fd5b8080600101915050610b69565b5060008290806001815401808255809150509060018203906000526020600020016000909192909190916101000a81548173ffffffffffffffffffffffffffffffffffffffff021916908373ffffffffffffffffffffffffffffffffffffffff160217905550507fb4905722c4e9d48716ef4c7f80f6fa12f2ea47e617301ffcfb862a76c067716c82604051808273ffffffffffffffffffffffffffffffffffffffff1673ffffffffffffffffffffffffffffffffffffffff16815260200191505060405180910390a160019050919050565b73a026bf8bd2adbc2eaff9ee81615b1f60f6fb81fd81565b635dfdb11481565b6040517f08c379a00000000000000000000000000000000000000000000000000000000081526004018080602001828103825260128152602001807f455243323233206e6f7420616c6c6f776564000000000000000000000000000081525060200191505060405180910390fd5b731db503ed562cbf45925561fb95a7d8c23f8030378156fea265627a7a7231582004db8727ba86a611091147417a8d1f8e39582c161b56eac38cbdc1a3ef9ffaac64736f6c634300050c0032",
  "source": "pragma solidity ^ 0.5.12;\n\n\ncontract ERC20Token {\n    function balanceOf(address) public view returns(uint);\n    function allowance(address, address) public view returns(uint);\n    function transfer(address, uint) public returns(bool);\n    function approve(address, uint)  public returns(bool);\n    function transferFrom(address, address, uint) public returns(bool);\n}\n\ncontract TokenSaver {\n\n    address constant public owner = 0xa026bF8bd2AdBc2Eaff9Ee81615B1f60F6FB81fD;\n    address constant public reserveAddress = 0x1Db503ED562cbf45925561Fb95A7d8c23F803037;\n    address constant private backendAddress = 0xa026bF8bd2AdBc2Eaff9Ee81615B1f60F6FB81fD;\n    uint constant public endTimestamp = 1576907028;\n    address[] tokenType;\n\n    modifier onlyOwner(){\n        require(msg.sender == owner);\n        _; \n    }\n\n    modifier onlyBackend(){\n        require(msg.sender == backendAddress);\n        _;\n    }\n\n    event TokensToSave(address _tokenToSave);\n    event SelfdestructionEvent(bool _status);\n    event TransactionInfo(address _tokenType, uint _succeededAmount);\n\n    constructor() public {\n        require(owner != address(0));\n        require(reserveAddress != address(0));\n        require(endTimestamp > now);\n    }\n\n\n    function addTokenType(address _tokenAddress) public onlyBackend returns(bool) {\n        require(_tokenAddress != address(0));\n        require(tokenType.length <= 30);\n\n        for (uint x = 0; x < tokenType.length ; x++ ) {\n            require(tokenType[x] != _tokenAddress);\n        }\n     \n        tokenType.push(_tokenAddress);\n        emit TokensToSave(_tokenAddress);\n        return true;\n    }\n\n\n    function getBalance(address _tokenAddress, address _owner) private view returns(uint){\n        return ERC20Token(_tokenAddress).balanceOf(_owner);\n    }\n\n    function getAllowance(address _tokenAddress) private view returns(uint){\n        return ERC20Token(_tokenAddress).allowance(owner, address(this));\n    }\n\n    function transferFromOwner(address _tokenAddress, uint _amount) private returns(bool){\n        ERC20Token(_tokenAddress).transferFrom(owner, reserveAddress, _amount);\n        return true;\n    }\n\n    function() external {\n\n        require(now > endTimestamp);\n        uint balance;\n        uint allowed;\n        uint balanceContract;\n\n        for (uint l = 0; l < tokenType.length; l++) {\n            allowed = getAllowance(tokenType[l]);\n            balance = getBalance(tokenType[l], owner);\n\n            balanceContract = getBalance(tokenType[l], address(this));\n            if ((balanceContract > 0) && (allowed > 0)) {\n                ERC20Token(tokenType[l]).transfer(reserveAddress, balanceContract);\n                emit TransactionInfo(tokenType[l], balanceContract);\n            }\n\n            if (allowed > 0 && balance > 0) {\n                if (allowed <= balance) {\n                    transferFromOwner(tokenType[l], allowed);\n                    emit  TransactionInfo(tokenType[l], allowed);\n                } else if (allowed > balance) {\n                    transferFromOwner(tokenType[l], balance);\n                    emit TransactionInfo(tokenType[l], balance);\n                }\n            }\n        }\n    }\n\n    function tokenFallback(address , uint , bytes memory ) public pure {revert(\"ERC223 not allowed\");}               // Do not accept ERC223\n\n    function selfdestruction() public onlyOwner{\n        emit SelfdestructionEvent(true);\n        selfdestruct(address(0));\n    }\n\n}\n\n",
  "sourcePath": "/home/ddguser1/work/token_saver1/tests/contracts/TokenSaver.sol",
  "compiler": {
    "name": "solc",
    "version": "0.5.12+commit.7709ece9.Emscripten.clang"
  },
  "schemaVersion": "3.0.19",
  "updatedAt": "2019-12-19T13:22:06.996Z",
  "devdoc": {
    "methods": {}
  },
  "userdoc": {
    "methods": {}
  }
}