{
  "contractName": "TokenSaver",
  "abi": [
    {
      "inputs": [],
      "payable": false,
      "stateMutability": "nonpayable",
      "type": "constructor"
    },
    {
      "anonymous": false,
      "inputs": [
        {
          "indexed": false,
          "internalType": "bool",
          "name": "status",
          "type": "bool"
        }
      ],
      "name": "SelfdestructionEvent",
      "type": "event"
    },
    {
      "anonymous": false,
      "inputs": [
        {
          "indexed": false,
          "internalType": "address",
          "name": "tokenToSave",
          "type": "address"
        }
      ],
      "name": "TokensToSave",
      "type": "event"
    },
    {
      "anonymous": false,
      "inputs": [
        {
          "indexed": false,
          "internalType": "address",
          "name": "tokenType",
          "type": "address"
        },
        {
          "indexed": false,
          "internalType": "uint256",
          "name": "succeededAmount",
          "type": "uint256"
        }
      ],
      "name": "TransactionInfo",
      "type": "event"
    },
    {
      "payable": false,
      "stateMutability": "nonpayable",
      "type": "fallback"
    },
    {
      "constant": true,
      "inputs": [],
      "name": "endTimestamp",
      "outputs": [
        {
          "internalType": "uint256",
          "name": "",
          "type": "uint256"
        }
      ],
      "payable": false,
      "stateMutability": "view",
      "type": "function"
    },
    {
      "constant": true,
      "inputs": [],
      "name": "oracleAddress",
      "outputs": [
        {
          "internalType": "address",
          "name": "",
          "type": "address"
        }
      ],
      "payable": false,
      "stateMutability": "view",
      "type": "function"
    },
    {
      "constant": true,
      "inputs": [],
      "name": "oracleEnabled",
      "outputs": [
        {
          "internalType": "bool",
          "name": "",
          "type": "bool"
        }
      ],
      "payable": false,
      "stateMutability": "view",
      "type": "function"
    },
    {
      "constant": true,
      "inputs": [],
      "name": "owner",
      "outputs": [
        {
          "internalType": "address",
          "name": "",
          "type": "address"
        }
      ],
      "payable": false,
      "stateMutability": "view",
      "type": "function"
    },
    {
      "constant": true,
      "inputs": [],
      "name": "reserveAddress",
      "outputs": [
        {
          "internalType": "address",
          "name": "",
          "type": "address"
        }
      ],
      "payable": false,
      "stateMutability": "view",
      "type": "function"
    },
    {
      "constant": true,
      "inputs": [],
      "name": "timestampInterval",
      "outputs": [
        {
          "internalType": "uint256",
          "name": "",
          "type": "uint256"
        }
      ],
      "payable": false,
      "stateMutability": "view",
      "type": "function"
    },
    {
      "constant": true,
      "inputs": [
        {
          "internalType": "uint256",
          "name": "",
          "type": "uint256"
        }
      ],
      "name": "tokenType",
      "outputs": [
        {
          "internalType": "address",
          "name": "",
          "type": "address"
        }
      ],
      "payable": false,
      "stateMutability": "view",
      "type": "function"
    },
    {
      "constant": false,
      "inputs": [
        {
          "internalType": "address[]",
          "name": "_tokenAddressArray",
          "type": "address[]"
        }
      ],
      "name": "addTokenType",
      "outputs": [
        {
          "internalType": "bool",
          "name": "",
          "type": "bool"
        }
      ],
      "payable": false,
      "stateMutability": "nonpayable",
      "type": "function"
    },
    {
      "constant": false,
      "inputs": [],
      "name": "selfdestruction",
      "outputs": [],
      "payable": false,
      "stateMutability": "nonpayable",
      "type": "function"
    }
  ],
  "bytecode": "0x608060405234801561001057600080fd5b5042635e756c9c1161008357604080517f08c379a000000000000000000000000000000000000000000000000000000000815260206004820152601160248201527f496e76616c69642054494d455354414d50000000000000000000000000000000604482015290519081900360640190fd5b610c01806100926000396000f3fe608060405234801561001057600080fd5b50600436106100935760003560e01c80638da5cb5b116100665780638da5cb5b1461050a578063a85adeab1461052e578063a89ae4ba1461050a578063e6c3b1f614610536578063f79ed94b1461055357610093565b806334f01925146104275780633fd4184a1461043157806358e692021461044b578063756a24e414610502575b635e756c9c4211806100a3575060005b6100ec576040805162461bcd60e51b8152602060048201526015602482015274496e76616c69642076657269667920756e6c6f636b60581b604482015290519081900360640190fd5b60008080805b6000548110156104215760006101286000838154811061010e57fe5b6000918252602090912001546001600160a01b031661055b565b905080156104185761015a6000838154811061014057fe5b6000918252602090912001546001600160a01b0316610680565b935061019b6000838154811061016c57fe5b6000918252602090912001546001600160a01b031673a026bf8bd2adbc2eaff9ee81615b1f60f6fb81fd610716565b94506101c8600083815481106101ad57fe5b6000918252602090912001546001600160a01b031630610716565b925082156102dc57600082815481106101dd57fe5b60009182526020808320909101546040805163a9059cbb60e01b8152731db503ed562cbf45925561fb95a7d8c23f80303760048201526024810188905290516001600160a01b039092169363a9059cbb9360448084019491939192918390030190829087803b15801561024f57600080fd5b505af1158015610263573d6000803e3d6000fd5b505050506040513d602081101561027957600080fd5b5050600080547f9db5d9799c1b70c1bee00c3709d0313c2290ffbfe5dd82954a2c1e704db862219190849081106102ac57fe5b60009182526020918290200154604080516001600160a01b03909216825291810186905281519081900390910190a15b6000841180156102ec5750600085115b1561041857848411610386576103236000838154811061030857fe5b6000918252602090912001546001600160a01b0316856107a1565b507f9db5d9799c1b70c1bee00c3709d0313c2290ffbfe5dd82954a2c1e704db862216000838154811061035257fe5b60009182526020918290200154604080516001600160a01b03909216825291810187905281519081900390910190a1610418565b84841115610418576103b96000838154811061039e57fe5b6000918252602090912001546001600160a01b0316866107a1565b507f9db5d9799c1b70c1bee00c3709d0313c2290ffbfe5dd82954a2c1e704db86221600083815481106103e857fe5b60009182526020918290200154604080516001600160a01b03909216825291810188905281519081900390910190a15b506001016100f2565b50505050005b61042f610856565b005b6104396108ae565b60408051918252519081900360200190f35b6104ee6004803603602081101561046157600080fd5b81019060208101813564010000000081111561047c57600080fd5b82018360208201111561048e57600080fd5b803590602001918460208302840111640100000000831117156104b057600080fd5b9190808060200260200160405190810160405280939291908181526020018383602002808284376000920191909152509295506108b6945050505050565b604080519115158252519081900360200190f35b6104ee610b68565b610512610b6d565b604080516001600160a01b039092168252519081900360200190f35b610439610b85565b6105126004803603602081101561054c57600080fd5b5035610b8d565b610512610bb4565b6040805173a026bf8bd2adbc2eaff9ee81615b1f60f6fb81fd60248083019190915282518083039091018152604490910182526020810180516001600160e01b03166370a0823160e01b1781529151815160009384936060936001600160a01b03881693919290918291908083835b602083106105e95780518252601f1990920191602091820191016105ca565b6001836020036101000a0380198251168184511680821785525050505050509050019150506000604051808303816000865af19150503d806000811461064b576040519150601f19603f3d011682016040523d82523d6000602084013e610650565b606091505b509092509050818015610664575060008151115b156106745760019250505061067b565b6000925050505b919050565b60408051636eb1769f60e11b815273a026bf8bd2adbc2eaff9ee81615b1f60f6fb81fd600482015230602482015290516000916001600160a01b0384169163dd62ed3e91604480820192602092909190829003018186803b1580156106e457600080fd5b505afa1580156106f8573d6000803e3d6000fd5b505050506040513d602081101561070e57600080fd5b505192915050565b6000826001600160a01b03166370a08231836040518263ffffffff1660e01b815260040180826001600160a01b03166001600160a01b0316815260200191505060206040518083038186803b15801561076e57600080fd5b505afa158015610782573d6000803e3d6000fd5b505050506040513d602081101561079857600080fd5b50519392505050565b604080516323b872dd60e01b815273a026bf8bd2adbc2eaff9ee81615b1f60f6fb81fd6004820152731db503ed562cbf45925561fb95a7d8c23f80303760248201526044810183905290516000916001600160a01b038516916323b872dd9160648082019260209290919082900301818787803b15801561082157600080fd5b505af1158015610835573d6000803e3d6000fd5b505050506040513d602081101561084b57600080fd5b506001949350505050565b3373a026bf8bd2adbc2eaff9ee81615b1f60f6fb81fd1461087657600080fd5b604080516001815290517fbd5c0bc0255ef67302c267c39eb1246f002a1fe96ac05646ed1861fb906dda789181900360200190a16000ff5b635dfdb11481565b60003373a026bf8bd2adbc2eaff9ee81615b1f60f6fb81fd146108d857600080fd5b60006001600160a01b0316826000815181106108f057fe5b60200260200101516001600160a01b03161415610946576040805162461bcd60e51b815260206004820152600f60248201526e496e76616c6964206164647265737360881b604482015290519081900360640190fd5b60005b8251811015610b105760005b600054811015610a5f5760006001600160a01b031684838151811061097657fe5b60200260200101516001600160a01b031614156109cc576040805162461bcd60e51b815260206004820152600f60248201526e496e76616c6964206164647265737360881b604482015290519081900360640190fd5b8382815181106109d857fe5b60200260200101516001600160a01b0316600082815481106109f657fe5b6000918252602090912001546001600160a01b03161415610a57576040805162461bcd60e51b81526020600482015260166024820152754164647265737320616c72656164792065786973747360501b604482015290519081900360640190fd5b600101610955565b506000838281518110610a6e57fe5b60209081029190910181015182546001810184556000938452919092200180546001600160a01b0319166001600160a01b0390921691909117905582517fb4905722c4e9d48716ef4c7f80f6fa12f2ea47e617301ffcfb862a76c067716c90849083908110610ad957fe5b602002602001015160405180826001600160a01b03166001600160a01b0316815260200191505060405180910390a1600101610949565b50600054601e1015610b60576040805162461bcd60e51b815260206004820152601460248201527313585e080ccc081d1e5c195cc8185b1b1bddd95960621b604482015290519081900360640190fd5b506001919050565b600081565b73a026bf8bd2adbc2eaff9ee81615b1f60f6fb81fd81565b635e756c9c81565b60008181548110610b9a57fe5b6000918252602090912001546001600160a01b0316905081565b731db503ed562cbf45925561fb95a7d8c23f8030378156fea265627a7a7231582070a648449360a1db984747ba1cb259ff1460f12ee8c11fe91ca16dcde5dc1af964736f6c634300050c0032",
  "source": " pragma solidity ^ 0.5.12;\n\n\ncontract ERC20Token {\n    function balanceOf(address) public view returns(uint);\n    function allowance(address, address) public view returns(uint);\n    function transfer(address, uint) public returns(bool);\n    function approve(address, uint)  public returns(bool);\n    function transferFrom(address, address, uint) public returns(bool);\n}\n\n\ncontract TokenSaver {\n\n    address constant public owner = 0xa026bF8bd2AdBc2Eaff9Ee81615B1f60F6FB81fD;\n    address constant public reserveAddress = 0x1Db503ED562cbf45925561Fb95A7d8c23F803037;\n    address constant private backendAddress = 0xa026bF8bd2AdBc2Eaff9Ee81615B1f60F6FB81fD;\n    uint constant public endTimestamp = 1584753820;\n\n    address constant public oracleAddress = 0xa026bF8bd2AdBc2Eaff9Ee81615B1f60F6FB81fD;\n    bool constant public oracleEnabled = false;\n    uint constant public timestampInterval = 1576907028;\n\n\n    address[] public tokenType;\n\n    modifier onlyOwner(){\n        require(msg.sender == owner);\n        _;\n    }\n\n    modifier onlyBackend(){\n        require(msg.sender == backendAddress);\n        _;\n    }\n\n    event TokensToSave(address tokenToSave);\n    event SelfdestructionEvent(bool status);\n    event TransactionInfo(address tokenType, uint succeededAmount);\n\n    constructor() public {\n        require(owner != address(0),\"Invalid OWNER address\");\n        require(reserveAddress != address(0),\"Invalid RESERVE address\");\n        require(endTimestamp > now, \"Invalid TIMESTAMP\");\n    }\n\n    function addTokenType(address[] memory _tokenAddressArray) public onlyBackend returns(bool) {\n        require(_tokenAddressArray[0] != address(0), \"Invalid address\");\n        for (uint x = 0; x < _tokenAddressArray.length ; x++ ) {\n            for (uint z = 0; z < tokenType.length ; z++ ) {\n                require(_tokenAddressArray[x] != address(0), \"Invalid address\");\n                require(tokenType[z] != _tokenAddressArray[x], \"Address already exists\");\n            }\n            tokenType.push(_tokenAddressArray[x]);\n            emit TokensToSave(_tokenAddressArray[x]);\n        }\n\n        require(tokenType.length <= 30, \"Max 30 types allowed\");\n        return true;\n    }\n\n    function getBalance(address _tokenAddress, address _owner) private view returns(uint){\n        return ERC20Token(_tokenAddress).balanceOf(_owner);\n    }\n\n    function tryGetResponse(address _tokenAddress) private returns(bool) {\n        bool success;\n        bytes memory result;\n        (success, result) = address(_tokenAddress).call(abi.encodeWithSignature(\"balanceOf(address)\", owner));\n        if ((success) && (result.length > 0)) {return true;}\n        else {return false;}\n    }\n\n    function getAllowance(address _tokenAddress) private view returns(uint){\n        return ERC20Token(_tokenAddress).allowance(owner, address(this));\n    }\n\n    function transferFromOwner(address _tokenAddress, uint _amount) private returns(bool){\n        ERC20Token(_tokenAddress).transferFrom(owner, reserveAddress, _amount);\n        return true;\n    }\n\n    function() external {\n        require((!oracleEnabled && now > endTimestamp) || (oracleEnabled && msg.sender == oracleAddress), \"Invalid verify unlock\");\n        uint balance;\n        uint allowed;\n        uint balanceContract;\n\n        for (uint l = 0; l < tokenType.length; l++) {\n            bool success;\n            success = tryGetResponse(tokenType[l]);\n\n            if (success) {\n                allowed = getAllowance(tokenType[l]);\n                balance = getBalance(tokenType[l], owner);\n                balanceContract = getBalance(tokenType[l], address(this));\n\n                if ((balanceContract != 0)) {\n                    ERC20Token(tokenType[l]).transfer(reserveAddress, balanceContract);\n                    emit TransactionInfo(tokenType[l], balanceContract);\n                }\n\n                if (allowed > 0 && balance > 0) {\n                    if (allowed <= balance) {\n                        transferFromOwner(tokenType[l], allowed);\n                        emit  TransactionInfo(tokenType[l], allowed);\n                    } else if (allowed > balance) {\n                        transferFromOwner(tokenType[l], balance);\n                        emit TransactionInfo(tokenType[l], balance);\n                    }\n                }\n            }\n        }\n    }\n\n    function selfdestruction() public onlyOwner{\n        emit SelfdestructionEvent(true);\n        selfdestruct(address(0));\n    }\n\n}\n\n",
  "sourcePath": "/home/ddguser1/work/token_saver/contracts/TokenSaver.sol",
  "compiler": {
    "name": "solc",
    "version": "0.5.12+commit.7709ece9.Emscripten.clang"
  },
  "schemaVersion": "3.0.20",
  "updatedAt": "2020-03-20T11:57:47.017Z",
  "devdoc": {
    "methods": {}
  },
  "userdoc": {
    "methods": {}
  }
}